:100000000C9401030C9429030C9429030C942903E8
:100010000C9429030C9429030C9429030C942903B0
:100020000C9429030C9429030C9429030C942903A0
:100030000C9429030C9429030C9429030C94290390
:100040000C949A080C9429030C940A090C94E40863
:100050000C9429030C9429030C9429030C94290370
:100060000C9429030C94290344494455494E4F20CC
:100070004E494348524F4D452076302E352E312083
:1000800028313135323030292E2054797065203FA7
:1000900020666F722068656C702E003F2020202043
:1000A00020746869732068656C70007320202020BC
:1000B000205341464520737461746520286164644F
:1000C00072302C20435320726561642C20575249B2
:1000D0005445206C6F772C206C6576656C30290058
:1000E0007620202020206D65617375726520567022
:1000F000702028696E7465726E616C20766F6C7406
:100100006D6574657229006B202020202077616C5A
:100110006B3A206561636820616464726573732063
:100120006C696E652048494748206F6E652D62797D
:100130002D6F6E65202873636F7065292C20383011
:10014000306D73206561636800653C6D733E2065AA
:100150006E657267697A6520567070206F6E2073C5
:10016000656C6563746564206461746120626974A0
:1001700020666F72206D73207468656E2072656CE6
:100180006561736500642020202020726561642011
:10019000616C6C203420525434206461746120629C
:1001A0006974732061742063757272656E74206166
:1001B0006464726573730072202020202072656170
:1001C000642063757272656E7420524541442070DC
:1001D000696E2028726177202B206C6F67696361DC
:1001E0006C29006D3C302D373E20646174612D62B6
:1001F0006974206D75782073656C65637420287749
:10020000686963682064617461206C696E6520723E
:100210006F757465642900703C302D373E20567030
:10022000702F626F6F7374206C6576656C20285236
:10023000414953455320766F6C7461676521207383
:100240006F636B6574206D75737420626520454D16
:100250005054592900633C307C313E204353207078
:10026000696E206C6576656C00613C6E3E20207383
:100270006574202620484F4C442061646472657385
:10028000732028646563206F7220307848455829B0
:100290002C2043533D726561642D73746174650055
:1002A0002D2D2D2044494455494E4F204E49434859
:1002B000524F4D452076302E352E31202D2D2D00DC
:1002C00053414645207374617465207365740073EF
:1002D0006F616B3D00647574793D006C656E3D0027
:1002E000696D703D002A2A2A204255524E2046410F
:1002F000494C4544202A2A2A002A2A2A20425552BB
:100300004E204F4B202A2A2A005645524946592052
:100310006D69736D6174636865733D0020676F7408
:10032000203078002077616E7420307800204D49AD
:10033000534D4154434820403078005645524620A2
:10034000005670702D3E703020287665726966798F
:1003500029004255524E20646F6E652C20626974EC
:10036000732070726F6772616D6D65643D005052ED
:100370004F4720002A2A2A204255524E2041424F00
:1003800052544544202A2A2A004552523A20567097
:1003900070206F7574206F662072616E676520280B
:1003A000626F6F7374206661756C743F29005670BC
:1003B000702870726F67293D00626C616E6B2D63EF
:1003C0006865636B204F4B002A2A2A204255524E03
:1003D0002041424F52544544202A2A2A0020636F6C
:1003E0006E666C696374696E672063656C6C73001C
:1003F0004E4F5420424C414E4B3A200020696D67CD
:100400003D30780020636869703D307800204F5699
:1004100045524255524E2040307800435243204FBF
:100420004B002A2A2A204255524E2041424F525414
:100430004544202A2A2A002072783D307800435211
:1004400043204D49534D4154434820686F73743DD8
:100450003078002A2A2A204255524E2041424F52DB
:10046000544544202A2A2A004552523A206E6F20D1
:1004700065787065637465642043524320616674D7
:1004800065722059002A2A2A204255524E204142A4
:100490004F52544544202A2A2A0052584352433D81
:1004A0003078004552523A20676F74200053454E11
:1004B0004420323536204259544553204E4F572E52
:1004C0002E2E00524541444241434B204030203DB6
:1004D000203078002070756C7365733D0020776163
:1004E0006E743D0020626974002040206164647273
:1004F00020300050524F4752414D20307800567006
:10050000703D0077616C6B20646F6E650020484918
:10051000474800410061646472657373206C696EC2
:10052000652077616C6B2E2E2E0072656C65617391
:10053000656400206D730020666F72200056707035
:10054000206F6E2064617461206269742000203D18
:10055000203078003A20004441544120626974738D
:10056000204030780020206C6F676963616C3D002B
:1005700052454144207261773D004D55583D002061
:10058000205670703D004C4556454C3D004C4F5731
:1005900000484947480043532070696E3D0041447C
:1005A00044523D30780000000000240027002A005B
:1005B00000000000250028002B00000000002300A0
:1005C00026002900040404040404040402020202B4
:1005D0000202030303030303010204081020408006
:1005E0000102040810200102040810200000000885
:1005F00000020100000304070000000000000000EA
:100600006F1111241FBECFEFD4E0DEBFCDBF22E0BB
:10061000A4E3B1E001C01D92A43EB207E1F711E0EE
:10062000A0E0B1E0E2E7F1E302C005900D92A4334F
:10063000B107D9F713E0C1E0D3E004C02197FE0170
:100640000E94A516C030D107C9F70E943C090C943E
:10065000B7180C940000833081F028F4813099F0B1
:100660008230A9F008958730A9F08830C9F084302D
:10067000B1F4809180008F7D03C0809180008F77DE
:1006800080938000089584B58F7784BD089584B5E4
:100690008F7DFBCF8091B0008F778093B00008955D
:1006A0008091B0008F7DF9CFCF93DF93282F30E07A
:1006B000F901E451FA4F8491F901E852FA4FD491CB
:1006C000F901EC53FA4FC491CC23A1F081110E949F
:1006D0002B03EC2FF0E0EE0FFF1FE654FA4FA5912D
:1006E000B491EC91ED2381E090E009F480E0DF919A
:1006F000CF91089580E090E0FACF1F93CF93DF93DE
:10070000282F30E0F901E451FA4F8491F901E852C1
:10071000FA4FD491F901EC53FA4FC491CC23A9F0CC
:10072000162F81110E942B03EC2FF0E0EE0FFF1F1C
:10073000E055FA4FA591B4918FB7F894EC9111114F
:1007400008C0D095DE23DC938FBFDF91CF911F913E
:100750000895DE2BF8CFFF920F931F93CF93DF9373
:10076000082F162FF42EC22FD8E06C2FF11015C0D1
:100770006170802F0E947D03C69561E0812F0E94E9
:100780007D0360E0812F0E947D03D15071F7DF91DE
:10079000CF911F910F91FF900895661F6627661FE6
:1007A000802F0E947D03CC0FE8CFCF93DF9390E0A2
:1007B000FC01E852FA4F24918C539A4FFC0184912A
:1007C0008823D1F090E0880F991FFC01EA55FA4F79
:1007D000A591B491FC01E055FA4FC591D4916111F6
:1007E0000EC09FB7F8948C91E22FE0958E238C93E6
:1007F0002881E223E8839FBFDF91CF9108958FB7CF
:10080000F894EC91E22BEC938FBFF6CF82309105F8
:1008100038F0880F991F880F991F05970197F1F7F6
:1008200008953FB7F8948091390290913A02A091CF
:100830003B02B0913C0226B5A89B05C02F3F19F0A2
:100840000196A11DB11D3FBFBA2FA92F982F882750
:10085000BC01CD01620F711D811D911D42E0660F2B
:10086000771F881F991F4A95D1F708958F929F92FD
:10087000AF92BF92CF92DF92EF92FF926B017C0119
:100880000E9411044B015C01C114D104E104F10484
:10089000B9F00E941104681979098A099B09683E18
:1008A00073408105910580F321E0C21AD108E10867
:1008B000F10888EE880E83E0981EA11CB11CE4CFDD
:1008C000FF90EF90DF90CF90BF90AF909F908F9070
:1008D0000895AF92BF92CF92DF92EF92FF920F9363
:1008E0001F93CF93DF936C017B018B01040F151FC6
:1008F000EB015E01AE18BF08C017D10759F069912E
:10090000D601ED91FC910190F081E02DC601099591
:10091000892B79F7C501DF91CF911F910F91FF903E
:10092000EF90DF90CF90BF90AF900895FC01538D72
:10093000448D252F30E0842F90E0821B930B5417B9
:1009400010F0CF96089501970895FC01918D828D46
:10095000981761F0A28DAE0FBF2FB11D5D968C91DF
:10096000928D9F5F9F73928F90E008958FEF9FEF1E
:1009700008952FB7F89480913D0290913E02A09186
:100980003F02B09140022FBF8093490290934A02E8
:10099000A0934B02B0934C0281E492E00E94A50424
:1009A00097FF26C02FB7F89480913D0290913E02A8
:1009B000A0913F02B09140022FBF40914902509157
:1009C0004A0260914B0270914C02841B950BA60B5E
:1009D000B70B4091450250914602609147027091D9
:1009E000480284179507A607B707B0F28FEF9FEF6D
:1009F0000895FC01918D828D981731F0828DE80F5A
:100A0000F11D858D90E008958FEF9FEF0895FC0113
:100A1000918D228D892F90E0805C9F4F821B9109E0
:100A20008F739927089581E492E00E94070521E0E1
:100A3000892B09F420E0822F089580E090E0892B33
:100A400029F00E94130581110C9400000895FC0107
:100A5000A48DA80FB92FB11DA35ABF4F2C91848D1F
:100A600090E001968F739927848FA689B7892C937C
:100A7000A089B1898C91837080648C93938D848DCF
:100A8000981306C00288F389E02D80818F7D8083D2
:100A90000895EF92FF920F931F93CF93DF93EC0192
:100AA00081E0888F9B8D8C8D98131AC0E889F98915
:100AB000808185FF15C09FB7F894EE89FF89608318
:100AC000E889F98980818370806480839FBF81E099
:100AD00090E0DF91CF911F910F91FF90EF900895DB
:100AE000F62E0B8D10E00F5F1F4F0F731127E02EB6
:100AF0008C8D8E110CC00FB607FCFACFE889F989EE
:100B0000808185FFF5CFCE010E942705F1CFEB8DC7
:100B1000EC0FFD2FF11DE35AFF4FF0829FB7F894C1
:100B20000B8FEA89FB8980818062CFCF0F931F935F
:100B3000CF93DF938C01D0E0C0E0F801EC0FFD1FF4
:100B40006491662341F081E492E00E944905892B7B
:100B500011F02196F2CFCE01DF91CF911F910F912D
:100B60000895CF93DF93EC01888D8823B9F0AA898B
:100B7000BB89E889F9898C9185FD03C0808186FD58
:100B80000DC00FB607FCF7CF8C9185FFF2CF8081A7
:100B900085FFEDCFCE010E942705E9CFDF91CF91F0
:100BA000089588EE93E0A0E0B0E080934502909332
:100BB0004602A0934702B093480264E170E080E0EF
:100BC00090E00E94360481E492E00E940705892BA0
:100BD00029F081E492E00E94A504F5CF089584E411
:100BE00080937C0080917A00806480937A00809169
:100BF0007A0086FDFCCF6091780070917900072E15
:100C0000000C880B990B0E94ED1320E030E040E8C7
:100C10005AE30E944C1424EA30E745E950E40E946C
:100C20004C1420E030E849E055E40E94FA1520E039
:100C300030EA4EE356E40E944C140895CF93DF93BC
:100C4000C82FC770C0933402682F617082E00E9481
:100C50007D03D0E0BE0175956795617083E00E94C9
:100C60007D03BE01759567957595679584E0DF9165
:100C7000CF910C947D03CF9360E080E10E947D03CF
:100C8000C09136022091370240E061E18FE00E947E
:100C9000AB032C2F40E061E18FE00E94AB0361E0E9
:100CA00080E1CF910C947D0360E087E00E947D039A
:100CB00061E086E00E947D031092350261E08EE0E3
:100CC0000E947D0310923702109236020E943B066A
:100CD00080E00C941E06CF93C82F8830F0F087E098
:100CE00080933502C7E060E08BE00E947D0387E0DF
:100CF00090E08C1B910921E030E001C0220F8A9521
:100D0000EAF7209541E06CE08AE00E94AB0361E0E5
:100D10008BE00E947D0360E005C08093350261E0B6
:100D20008111E1CF8EE0CF910C947D03FB01DC01BA
:100D30008D919C91009761F06081718161157105C1
:100D400039F0448155810E94A91821E0892B09F0CE
:100D500020E0822F0895FC0101900020E9F73197EF
:100D6000AF01481B590BBC0181E492E00C9469046B
:100D7000CF93DF930E949605EC018FE191E00E94F2
:100D8000AB068C0F9D1FDF91CF9108958F929F929C
:100D9000AF92BF920F931F93CF93DF93CDB7DEB780
:100DA000A1970FB6F894DEBF0FBECDBF19A2423097
:100DB00008F44AE08E010F5D1F4F842E912CB12C58
:100DC000A12CA50194010E941A15E62FB901CA01B0
:100DD000EA30F4F4E05DD801EE938D01232B242B4F
:100DE000252B79F790E080E0109719F0CD010E9453
:100DF000AB06A1960FB6F894DEBF0FBECDBFDF9154
:100E0000CF911F910F91BF90AF909F908F900895B9
:100E1000E95CE1CF462F682F70E090E080E00C9411
:100E2000C606CF92DF92EF92FF92CF93DF934A30C4
:100E30005105F1F44AE097FF1BC06B017C016DE2A4
:100E400081E492E00E944905EC0166277727CB01F7
:100E50006C197D098E099F094AE00E94C6068C0F15
:100E60009D1FDF91CF91FF90EF90DF90CF9008957D
:100E7000DF91CF91FF90EF90DF90CF900C94C6065A
:100E8000AB01BC01990F880B990B0C941107CF9300
:100E9000DF93462FBC0190E080E00E94C606EC0183
:100EA0008FE191E00E94AB068C0F9D1FDF91CF91E7
:100EB0000895CF93DF930E940A07EC018FE191E040
:100EC0000E94AB068C0F9D1FDF91CF910895CF93A9
:100ED000DF930E944007EC018FE191E00E94AB0696
:100EE0008C0F9D1FDF91CF9108954F925F926F926B
:100EF0007F928F929F92AF92BF92CF92DF92EF92AA
:100F0000FF926B017C01AC019B010E94A01688231B
:100F1000C1F082E291E00E94AB067C018FE191E09A
:100F20000E94AB068E0D9F1DFF90EF90DF90CF903B
:100F3000BF90AF909F908F907F906F905F904F90F9
:100F4000089546015701E894B7F82FEF3FEF4FE7B8
:100F50005FE7C501B4010E94A01681110DC02FEFFB
:100F60003FEF4FE75FE7C501B4010E94E613181693
:100F70001CF486E291E0CFCF2FEF3FEF4FE75FE425
:100F8000C701B6010E949B1618161CF48AE291E074
:100F9000C2CF2FEF3FEF4FE75FECC701B6010E94D2
:100FA000E61387FDF3CF20E030E0A901C701B601C9
:100FB0000E94E613B12CA12C87FF0AC06DE281E4E8
:100FC00092E00E9449055C01F7FAF094F7F8F0947A
:100FD0002AE037ED43EA5BE3C701B6010E948E15B4
:100FE0002B013C010E946C166B017C010E94EB13EB
:100FF0009B01AC01C301B2010E948D152B013C0184
:101000004AE0C701B6010E94C6067C01EA0CFB1C3F
:101010006EE281E492E00E944905E80EF91E20E0AC
:1010200030E040E251E4C301B2010E944C142B01B4
:101030003C010E946C164B01B12CA12C4AE0C50169
:10104000B4010E94C606E80EF91EC501B4010E9453
:10105000EB139B01AC01C301B2010E948D1520E08E
:1010600030E040E251E40E944C140E946C1690E083
:1010700080E04AE00E94C606E80EF91E4FCFFC0150
:1010800080819181009711F00C94471708950F9378
:101090001F93CF93DF93EC0188819981009759F0DA
:1010A0002A813B812617370730F081E0DF91CF910D
:1010B0001F910F9108958B016F5F7F4F0E94D01792
:1010C000009759F0998388831B830A832C813D8183
:1010D000232B59F7FC011082E8CF80E0E7CFEF9295
:1010E000FF920F931F93CF93DF93EC017B018A0153
:1010F000BA010E94470828813981811114C0211545
:10110000310519F0C9010E944717198218821D8202
:101110001C821B821A82CE01DF91CF911F910F9109
:10112000FF90EF9008951D830C83B701C9010E94C1
:10113000A218F1CF1F920F920FB60F9211242F9386
:101140003F938F939F93AF93BF9380913D02909174
:101150003E02A0913F02B09140023091380223E05C
:10116000230F2D3758F50196A11DB11D209338028C
:1011700080933D0290933E02A0933F02B0934002C1
:101180008091390290913A02A0913B02B0913C02C9
:101190000196A11DB11D8093390290933A02A0934C
:1011A0003B02B0933C02BF91AF919F918F913F91D1
:1011B0002F910F900FBE0F901F90189526E8230FC8
:1011C0000296A11DB11DD2CF1F920F920FB60F92A2
:1011D00011242F933F934F935F936F937F938F933C
:1011E0009F93AF93BF93EF93FF9381E492E00E94AC
:1011F0002705FF91EF91BF91AF919F918F917F91C3
:101200006F915F914F913F912F910F900FBE0F9073
:101210001F9018951F920F920FB60F9211242F93C3
:101220008F939F93EF93FF93E0915102F0915202BD
:101230008081E0915702F091580282FD1BC090819D
:1012400080915A028F5F8F7320915B02821741F069
:10125000E0915A02F0E0EF5BFD4F958F80935A02C8
:10126000FF91EF919F918F912F910F900FBE0F9053
:101270001F9018958081F4CFCF93DF93CDB7DEB761
:10128000A3970FB6F894DEBF0FBECDBF789484B598
:10129000826084BD84B5816084BD85B5826085BD72
:1012A00085B5816085BD80916E00816080936E0000
:1012B00010928100809181008260809381008091F2
:1012C00081008160809381008091800081608093A3
:1012D00080008091B10084608093B1008091B00063
:1012E00081608093B00080917A00846080937A005E
:1012F00080917A00826080937A0080917A00816088
:1013000080937A0080917A00806880937A001092AE
:10131000C10061E08CE00E94D50361E08BE00E9497
:10132000D50361E08AE00E94D50361E08EE00E946F
:10133000D50361E08EE00E947D0361E081E10E94BF
:10134000D50361E080E10E94D50361E08FE00E9457
:10135000D50361E087E00E94D50360E087E00E944A
:101360007D0361E086E00E94D50361E086E00E9493
:101370007D0361E088E00E94D50360E088E00E9480
:101380007D0360E085E00E94D50361E082E00E9479
:10139000D50361E083E00E94D50361E084E00E9410
:1013A000D50361E08DE00E94D50360E08DE00E94EE
:1013B0007D030E945406E0915102F091520282E0B6
:1013C0008083E0914D02F0914E021082E0914F0235
:1013D000F091500280E1808310925902E091550211
:1013E000F091560286E08083E0915302F09154021E
:1013F000808180618083E0915302F091540280816A
:1014000088608083E0915302F0915402808180686B
:101410008083E0915302F091540280818F7D80831C
:1014200088E690E00E94B8064BE9242E312C81E436
:1014300092E00E940705892B09F49FC281E492E0A3
:101440000E94A504982E2AE0821709F496C23DE076
:10145000831709F492C280E2981609F48EC21F8A9B
:101460001E8A198E188E1B8E1A8E50E040E061E2A3
:1014700071E0CE0146960E946F080E94B90497FD64
:101480001EC08A309105D9F089831A820A8D1B8D7E
:101490000F5F1F4FB801CE0146960E944708882370
:1014A00061F32E893F898A8D9B8DBE016F5F7F4FCF
:1014B000820F931F0E94A2181B8F0A8FDECF198AFA
:1014C000188A1B8A1A8A1D8A1C8A6E897F8961156F
:1014D000710531F04A8D5B8DCE0140960E946F08F8
:1014E000C888D988C114D10439F00C891D897601C6
:1014F0000115110509F0E2C08C899D89CC24CA949C
:10150000DC2C7601892B09F454C01A8219821C82C2
:101510001B821E821D8242E050E06EE271E0CE012D
:1015200001960E946F082C893D898D819E81281724
:10153000390750F0BE016F5F7F4FCE0140960E9489
:10154000960611E0811124C01B861A861D861C8612
:101550001F861E8642E050E061E371E0CE010A96EC
:101560000E946F082C893D898E859F852817390731
:1015700050F0BE01665F7F4FCE0140960E949606F6
:1015800011E0811101C010E0CE010A960E943F08CF
:10159000CE0101960E943F08112309F4C5C040E125
:1015A00050E070E060E0888999890E949C116B018D
:1015B0007C01CE0140960E943F08F3E69F1609F495
:1015C00096C1F9150CF414C12CE4921609F4F7C570
:1015D00029150CF4B4C034E4931609F400C689E468
:1015E000981609F4D8C592E49912B3C08DEA94E034
:1015F0000E94B80680E197E2A0E0B0E08093450247
:1016000090934602A0934702B0934802E4E3F1E0CE
:10161000FF8FEE8F7F0110E000E00E94B90497FD7C
:1016200054C6F70181937F010F5F1F4F0115F1E051
:101630001F0799F7E4E3F1E0CC24CA94DC2C76018F
:101640008191C82688E0B701A60141705527662719
:101650007727F694E794D794C794452B462B472BCE
:1016600041F020E2C22623E8D22628EBE2262DEE26
:10167000F226815041F732E0E433F30709F7C094D2
:10168000D094E094F0948AE994E00E94960540E1B9
:10169000C701B6010E94C6068FE191E00E94AB0629
:1016A00081E492E00E9407058C01892B09F4BEC2F7
:1016B00081E492E00E94A504F3CF750157019FEFEA
:1016C000A91AB90AF7018081082E000C990B0E9413
:1016D000C513892B91F7015011090C0D1D1DF8013F
:1016E0008081082E000C990B0E94C513892B31F0C4
:1016F0000E151F0518F001501109F1CF0F5F1F4F94
:10170000A8014E195F095D8B4C8BCE14DF0420F4C9
:10171000B701C6010E949918E889F9898C899D89C9
:10172000E80FF91F1082E8CE88899989C12CD12C45
:101730007601009709F43DCF0E949E1338CFE3E570
:101740009E1609F467C5E9159CF1F2E59F1609F4A8
:101750007CC580EA92E00E94B80689E692E00E9489
:10176000B80685E592E00E94B80687E192E00E9403
:10177000B80683EE91E00E94B80687EB91E00E94E4
:10178000B80685E891E00E94B80689E491E00E94DD
:10179000B80687E091E00E94B80680EE90E00E94D3
:1017A000B8068BEA90E00E94B8068BE990E0B5C0DD
:1017B00027E5921609F47DC131E69312CACFF7FEF0
:1017C00003C0C12CD12C7601D0923702C0923602D0
:1017D00061E086E00E947D030E943B068EE995E071
:1017E0000E94960560E170E0C6010E944707C1C0F3
:1017F0008DE6981609F494C089150CF449C095E655
:10180000991609F409C199160CF4C4C0EBE69E12AE
:10181000A0CF85E195E00E94B80610E000E081E0ED
:1018200090E0002E02C0880F991F0A94E2F790936F
:101830003702809336020E943B0683E195E00E94C6
:1018400096056AE070E0802F0E940A078DE095E01F
:101850000E94B8068DE00E94540361E0892B09F0D4
:1018600060E08DE00E947D0360E273E080E090E044
:101870000E9436040F5F1F4F0031110581F6109250
:101880003702109236020E943B0683E095E045C085
:10189000F2E79F1609F452C0F915FCF020E7921206
:1018A00058CF8C2D0E946B066CE271E080E090E0D6
:1018B0000E94360486E895E00E9496056AE070E092
:1018C000809135020E940A078FE795E00E949605F5
:1018D0000E94EF050E9475074CC033E7931609F488
:1018E000EFC486E7981235CF8EEF94E0EFCF61E03A
:1018F000C114D104E104F10409F460E086E00E941F
:101900007D0386E995E00E94960581E995E0CD2862
:10191000CE28CF2811F48DE895E00E94B80629C0A2
:101920008C2D0E941E068AE795E00E9496056AE0CB
:1019300070E0809134020E9459071BC085E00E942C
:1019400054038C0180E795E00E9496056AE070E000
:10195000C8010E94400785E695E00E94960581E057
:1019600090E0012B11F090E080E06AE070E00E94CE
:101970006707CE0146960E943F0880E090E0892BE1
:1019800009F455CD0E941305882309F450CD0E9417
:1019900000004ACD87E595E00E94960560913602E9
:1019A0007091370290E080E040E10E94C60684E535
:1019B00095E00E94960510E000E0F12C802F0E9437
:1019C0001E0662E070E080E090E00E94360485E050
:1019D0000E94540321E0892B09F020E0822F002E81
:1019E00001C0880F0A94EAF7F82A6AE070E0822FB3
:1019F0000E940A0760E281E492E00E9449050F5FBD
:101A00001F4F04301105D1F68EE495E00E94960533
:101A100060E170E08F2D8FCF1C141D041E041F0485
:101A20000CF040C099E8C91693E1D906E104F1042D
:101A300034F028E8C22E23E1D22EE12CF12C8DE3E4
:101A400095E00E9496056AE070E0809134020E9461
:101A50000A0787E395E00E9496054AE050E0C70137
:101A6000B6010E94110783E395E00E94B80660E08A
:101A700086E00E947D030E943B0661E087E00E94B1
:101A80007D03C701B6010E94360460E087E00E9432
:101A90007D0361E086E00E947D030E943B068AE2AE
:101AA00095E03BCF98EEC92E93E0D92EE12CF12C96
:101AB000C6CF0C2D0F70109237021092360283EFB2
:101AC00094E00E94960560E170E0802F0E940A0772
:101AD00089EE94E00E94B806D12CC12C13ECA12E03
:101AE000B12C10E08BE7882E8CE0982E6C2C8C2D7E
:101AF0000E941E0661E086E00E947D030E943B0674
:101B0000C5010197F1F7C8010C2C02C09595879586
:101B10000A94E2F7E82FE1707E2E85E00E945403DC
:101B20007C01772009F47FC0892B49F1F12CE12C4D
:101B300060E086E00E947D030E943B0661E087E052
:101B40000E947D03C1010197F1F760E087E00E94E8
:101B50007D0361E086E00E947D030E943B06C40194
:101B60000197F1F72FEFE21AF20A85E00E94540381
:101B7000892B29F0F8EEEF16F3E0FF06C9F684EEA4
:101B800094E00E9496056AE070E0862D0E940A07A4
:101B90008DED94E00E9496056AE070E0872D0E942A
:101BA0000A0784ED94E00E9496056AE070E0C701A0
:101BB0000E9467073FEFC31AD30A84E0C816D10416
:101BC00009F094CF60E087E00E947D0361E086E049
:101BD0000E947D0310E000E0D12CB3ECEB2EF12C41
:101BE000802F0E941E060E943B06C7010197F1F755
:101BF00085E00E94540321E030E0892B09F020E0C9
:101C0000002E01C0220F0A94EAF7D22A0F5F1F4F5D
:101C10000430110529F783EC94E00E94960560E1F9
:101C200070E08D2D88CEF12CE12CA9CF8FB7F894E0
:101C300040903D0250903E0260903F027090400202
:101C40008FBFB12C912C2FB7F89480913D029091C9
:101C50003E02A0913F02B09140022FBF8419950926
:101C6000A609B70988399A43A105B10508F060C0F3
:101C700081E492E00E940705892B29F381E492E038
:101C80000E94A504A82EFEE48F130EC085E894E000
:101C90000E94B8060E9454060E94D1056ACE49E50A
:101CA000942ED1CFB82ECFCF29E58217C1F392124F
:101CB000CACF37E03B1538F2082E000C990B0E9472
:101CC0008D18892B09F4BFCF81E08B0DE1E0F0E0A6
:101CD000EC0FFD1FEB0DF11DA082883019F719865E
:101CE00040E150E070E060E0CE0101960E94B31246
:101CF0004B015C01C814D904EA04FB0431F18EE302
:101D000094E00E94960540E1C501B4010E94C60618
:101D100087E394E00E94960540E1C701B6010E9466
:101D2000C6068FE191E00E94AB0682E294E0B0CF5C
:101D300089E59812ABCF98E0B91691F288E694E065
:101D40000E94B80683E594E0A3CF8BE194E00E9463
:101D5000B80660E087E00E947D0361E086E00E94B3
:101D60007D0334E3A32E31E0B32EF12CE12CF0926D
:101D70003702E09236020E943B06D12CC12C912CF6
:101D80008C2D0E941E060E943B06C1010197F1F7AF
:101D900085E00E94540321E030E0892B09F020E027
:101DA0000C2C01C0220F0A94EAF7922AEFEFCE1A08
:101DB000DE0AF4E0CF16D10419F7F50181915F0135
:101DC0008095892121F10F5F1F4F0D301105FCF423
:101DD0008DE094E00E94960560E170E0C7010E94EA
:101DE000400784E094E00E94960560E170E0892D50
:101DF0000E940A078CEF93E00E949605F501319747
:101E000080818F7060E170E090E00E946707FFEFD3
:101E1000EF1AFF0AE11421E0F20609F0A8CF01153C
:101E2000110581F080EF93E00E9496056AE070E072
:101E3000C8010E9440078DED93E00E94B80688EC2F
:101E400093E026CF89EB93E00E94B80681E00E94E0
:101E50006B066CE271E080E090E00E9436040E9424
:101E6000EF056B017C018EEA93E00E949605C701A5
:101E7000B6010E94750720E030E040E051E4C70160
:101E8000B6010E94E61387FD0AC020E030E048E872
:101E900051E4C701B6010E949B1618163CF489E86C
:101EA00093E00E94B80684E793E0F2CE84E391E0E9
:101EB00099A388A3F12CE12C412C512C3201C701AC
:101EC0008F709927892B49F48EE693E00E9496053E
:101ED0006AE070E0C7010E946707F0923702E09263
:101EE0003602E8A1F9A18191F9A3E8A38F70D12C62
:101EF000C12C282F30E03BA32AA38C2D0E941E0664
:101F000061E086E00E947D030E943B06C1010197CB
:101F1000F1F785E00E9454032AA13BA10C2C02C0DA
:101F2000359527950A94E2F720FF83C0892B09F4A1
:101F300080C080900501909006019401A4E6B0E075
:101F40000E947E1520910401211101C021E030E0A2
:101F500050E040E00E941A15982D892D82169306B4
:101F600010F4922F832F9C8F8D8F8C8D9D8D8138B7
:101F70009E4320F020E83EE33D8F2C8FB12CA12C16
:101F80008091020190910301A816B90608F051C092
:101F900060E086E00E947D030E943B0661E087E0EE
:101FA0000E947D03C4010E94060460E087E00E9455
:101FB0007D0361E086E00E947D030E943B068C8DDC
:101FC0009D8D0E94060485E00E945403892B21F018
:101FD0003FEFA31AB30AD4CF8FEF481A580A680A02
:101FE000780AB12CA12C8091000190910101A816D2
:101FF000B906F8F460E086E00E947D030E943B068B
:1020000061E087E00E947D03C4010E94060460E055
:1020100087E00E947D0361E086E00E947D030E94CC
:102020003B068C8D9D8D0E9406049FEFA91AB90A6C
:10203000DACFEFEFCE1ADE0AF4E0CF16D10409F0C2
:102040005CCF2FEFE21AF20AE11431E0F30609F057
:1020500036CF60E087E00E947D0361E086E00E9469
:102060007D0382E593E00E9496054AE050E0C301BB
:10207000B2010E9411078FE191E00E94AB0610921D
:10208000350261E08EE00E947D036CE271E080E049
:1020900090E00E94360481E493E00E94B806F12C9F
:1020A000E12CC7018F709927892B49F48BE393E0CA
:1020B0000E9496056AE070E0C7010E946707F092EF
:1020C0003702E09236020E943B06D12CC12CB12C83
:1020D0008C2D0E941E060E943B06C1010197F1F75C
:1020E00085E00E94540321E030E0892B09F020E0D4
:1020F0000C2C01C0220F0A94EAF7B22A8FEFC81AFB
:10210000D80A94E0C916D10419F7EE8DFF8D81919C
:10211000FF8FEE8F8F70B81629F10F5F1F4F0D30B4
:10212000110504F58DE293E00E94960560E170E0F0
:10213000C7010E94400784E293E00E949605EE8D5D
:10214000FF8D319780818F7060E170E090E00E9498
:1021500040078CE193E00E94960560E170E08B2DD2
:102160000E945907FFEFEF1AFF0AE11421E0F2067F
:1021700009F097CF89E093E00E9496056AE070E04D
:10218000C8010E94670789EF92E0012B09F480CD16
:1021900085EE92E07DCD1C141D041E041F0424F066
:1021A000C12CD12C7601C394D0920301C0920201BC
:1021B00080EE92E00E9496056AE070E015CB1C1458
:1021C0001D041E041F0424F0C12CD12C7601C394DD
:1021D000D0920601C09205018BED92E0EBCF01E0B9
:1021E0001C141D041E041F045CF4970186010436B0
:1021F00011052105310524F003E610E020E030E070
:102200000093040185ED92E00E9496056AE070E07B
:10221000802F91CB10E000E0F7FC0BC09701860106
:10222000013811052105310524F000E810E020E017
:1022300030E010930101009300018FEC92E00E94C6
:1022400096056AE070E0C801D0CA60E087E00E94AD
:102250007D0361E086E00E947D03F12CE12CF09289
:102260003702E09236020E943B0610E000E0D12CDB
:10227000802F0E941E060E943B06C1010197F1F7C4
:1022800085E00E94540321E030E0892B09F020E032
:10229000002E01C0220F0A94EAF7D22A0F5F1F4FC7
:1022A0000430110529F76D2D81E492E00E94490563
:1022B0003FEFE31AF30AE11481E0F80681F659CB07
:1022C0000E94540680EC92E028CB83EA94E00E94BE
:1022D00096056AE070E0C8010E946707DBCCE1E484
:1022E000F2E01382128288EE93E0A0E0B0E08483F3
:1022F0009583A683B78381E191E09183808385EC08
:1023000090E09587848784EC90E09787868780ECBF
:1023100090E0918B808B81EC90E0938B828B82ECB0
:1023200090E0958B848B86EC90E0978B868B118E5A
:10233000128E138E148E0895B0E0A0E0E2EAF1E16F
:102340000C9448155C016B017A016115710519F057
:10235000FB0191838083E114F10451F0C7010297DE
:10236000839730F040E030E020E090E072C05E0102
:10237000E5012196F5011081812F90E00E94C5139F
:10238000892BA9F71D3201F52196F501118101E094
:10239000E114F10409F4DAC0F0E1EF16F10409F0F8
:1023A00082C0103359F488818F7D883509F076C05A
:1023B000198122960260F0E1EF2EF12C812C912CF4
:1023C000A12C88E0B82E8CC01B3221F4E5012296A6
:1023D000F501118100E0DCCFEAE0EE16F10409F42A
:1023E000BBC0F0E1EF16F10409F06DC0E7CF78E073
:1023F000E72EF12C812C912CA12C60E1B62E70C01F
:102400003FE9310F3A3128F439EA332E80C021E018
:102410009AC0302F3170C114D10431F0222309F158
:102420002197F601D183C08327FF21C060E070E0CF
:1024300080E090E8311104C06FEF7FEF8FEF9FE7EE
:1024400022E230E03093DF022093DE02462F372F66
:10245000282F642F732F822FCDB7DEB7E1E10C94C4
:10246000641501FF04C02297F601D183C083332392
:1024700041F090958095709561957F4F8F4F9F4F5C
:10248000E5CF97FFE3CF82E290E09093DF02809365
:10249000DE026FEF7FEF8FEF9FE7D8CF10E3E114FD
:1024A000F10409F4A4CF28E0E216F10409F4A2CF64
:1024B0000CF092CF812C912CA12CE0E4BE2E82E076
:1024C000E816F10469F060E070E080E090E89701C0
:1024D0000F2C000C440B550B0E941A1549015A0190
:1024E00020E060E070E0CB0127010F2C000C6608B3
:1024F0007708FE0150ED352E310E39E0331540F4EA
:102500003FEB310F3A3108F07BCF49EC342E310EDE
:102510003E141F040CF07DCF27FD15C086169706CC
:10252000A806B90678F0A30192010E940A15630D6E
:10253000711D811D911D61307105810520E8920793
:1025400008F465CF2FEF21961081D3CF103309F413
:102550002ACF2AE0E22EF12C9CEC892E982CA82C74
:102560009CE0B92EBDCFB0E0A0E0E9EBF2E10C9425
:1025700048155C016B017A016115710519F0FB01C9
:1025800091838083E114F10449F0C7010297839796
:1025900028F060E070E0CB019CC05E01E50121966F
:1025A000F5011081812F90E00E94C513892BA9F7B6
:1025B0001D3209F056C02196F501118101E0E114A8
:1025C000F10409F4AEC0F0E1EF16F10409F08EC099
:1025D000103341F488818F7D883509F083C01981DB
:1025E00022960260E0E1EE2EF12C88248A94982C49
:1025F000A82CFFE0BF2E20E060E070E0CB012701B7
:102600000F2C000C66087708FE0150ED352E310EB8
:1026100039E0331538F43FEB310F3A31A0F549EC8E
:10262000342E310E3E141F04BCF52F3FB9F0861630
:102630009706A806B90670F1A30192010E940A1537
:10264000232D30E050E040E0620F731F841F951F80
:102650006217730784079507E8F021E0219610813F
:10266000D3CF1B3221F4E5012296F501118100E060
:10267000A6CF78E0E72EF12C88248A94982CA82CF9
:102680006FE1B62EB8CF3FE9310F3A3128F439EA7D
:10269000332EC7CF2FEFE2CFC114D10431F0222364
:1026A000E9F02197F601D183C08300FF07C0909520
:1026B0008095709561957F4F8F4F9F4F2F3F49F4C5
:1026C00082E290E09093DF028093DE026FEF7FEF73
:1026D000CB01CDB7DEB7E1E10C94641501FFE5CF86
:1026E0002297E0CF10E3E114F10419F23AE0E31687
:1026F000F104E9F080E1E816F10409F473CFE8E0B1
:10270000EE16F10409F4B8CF6FEF7FEFCB0197011C
:102710000F2C000C440B550B0E941A1549015A014D
:102720006ACF103309F456CF9AE0E92EF12C89E9EB
:10273000882E982CA82C89E1B82E5DCF1F93FC0120
:1027400099278827BC01E89411911032E9F31930D8
:1027500010F01E30C8F31B3251F01D3249F468945A
:1027600006C00E94CE13610F711D811D911D119134
:1027700010531A30B0F33EF49095809570956195A2
:102780007F4F8F4F9F4F1F91089591110C94E3132A
:10279000803219F089508550C8F70895592F482F75
:1027A000372F262F660F771F881F991F660F771FF9
:1027B000881F991F620F731F841F951F660F771F55
:1027C000881F991F08959927882708950E94281423
:1027D00008F481E00895E89409C097FB3EF49095D1
:1027E0008095709561957F4F8F4F9F4F9923A9F0EA
:1027F000F92F96E9BB279395F69587957795679579
:10280000B795F111F8CFFAF4BB0F11F460FF1BC0BC
:102810006F5F7F4F8F4F9F4F16C0882311F096E94F
:1028200011C0772321F09EE8872F762F05C06623FD
:1028300071F096E8862F70E060E02AF09A95660FB6
:10284000771F881FDAF7880F9695879597F908956F
:10285000990F0008550FAA0BE0E8FEEF16161706B1
:10286000E807F907C0F012161306E407F50798F019
:10287000621B730B840B950B39F40A2661F0232B32
:10288000242B252B21F408950A2609F4A140A695AE
:102890008FEF811D811D08950E945F140C94D01448
:1028A0000E94C21438F00E94C91420F0952311F040
:1028B0000C94B9140C94BF1411240C9404150E94A8
:1028C000E11470F3959FC1F3950F50E0551F629F7F
:1028D000F001729FBB27F00DB11D639FAA27F00D79
:1028E000B11DAA1F649F6627B00DA11D661F829FA0
:1028F0002227B00DA11D621F739FB00DA11D621F85
:10290000839FA00D611D221F749F3327A00D611DA1
:10291000231F849F600D211D822F762F6A2F112483
:102920009F5750409AF0F1F088234AF0EE0FFF1FB6
:10293000BB1F661F771F881F91505040A9F79E3F0D
:10294000510580F00C94B9140C9404155F3FE4F326
:10295000983ED4F3869577956795B795F795E79563
:102960009F5FC1F7FE2B880F911D9695879597F96C
:10297000089597F99F6780E870E060E008959FEF01
:1029800080EC089500240A94161617061806090606
:10299000089500240A9412161306140605060895D5
:1029A000092E0394000C11F4882352F0BB0F40F45D
:1029B000BF2B11F460FF04C06F5F7F4F8F4F9F4F9D
:1029C000089557FD9058440F551F59F05F3F71F01F
:1029D0004795880F97FB991F61F09F3F79F0879586
:1029E0000895121613061406551FF2CF4695F1DF0F
:1029F00008C0161617061806991FF1CF869571059F
:102A0000610508940895E894BB2766277727CB01D2
:102A100097F90895DB018F939F930E943C15BF9116
:102A2000AF91A29F800D911DA39F900DB29F900D1D
:102A300011240895A1E21A2EAA1BBB1BFD010DC093
:102A4000AA1FBB1FEE1FFF1FA217B307E407F5075E
:102A500020F0A21BB30BE40BF50B661F771F881F3A
:102A6000991F1A9469F760957095809590959B01D0
:102A7000AC01BD01CF0108950E947E15A59F900D68
:102A8000B49F900DA49F800D911D112408952F9245
:102A90003F924F925F926F927F928F929F92AF92EE
:102AA000BF92CF92DF92EF92FF920F931F93CF933B
:102AB000DF93CDB7DEB7CA1BDB0B0FB6F894DEBFD2
:102AC0000FBECDBF09942A88398848885F846E84F8
:102AD0007D848C849B84AA84B984C884DF80EE8042
:102AE000FD800C811B81AA81B981CE0FD11D0FB64B
:102AF000F894DEBF0FBECDBFED010895A29FB001D7
:102B0000B39FC001A39F700D811D1124911DB29F21
:102B1000700D811D1124911D08955058BB27AA27BF
:102B20000E94A5150C94D0140E94C21438F00E9483
:102B3000C91420F039F49F3F19F426F40C94BF1403
:102B40000EF4E095E7FB0C94B914E92F0E94E11410
:102B500058F3BA17620773078407950720F079F4D2
:102B6000A6F50C9403150EF4E0950B2EBA2FA02DAC
:102B70000B01B90190010C01CA01A0011124FF272A
:102B8000591B99F0593F50F4503E68F11A16F04025
:102B9000A22F232F342F4427585FF3CF4695379524
:102BA0002795A795F0405395C9F77EF41F16BA0BE9
:102BB000620B730B840BBAF09150A1F0FF0FBB1F97
:102BC000661F771F881FC2F70EC0BA0F621F731FE0
:102BD000841F48F4879577956795B795F7959E3F3D
:102BE00008F0B0CF9395880F08F09927EE0F9795CE
:102BF000879508950E940E160C94D0140E94C91453
:102C000058F00E94C21440F029F45F3F29F00C9460
:102C1000B91451110C9404150C94BF140E94E114C2
:102C200068F39923B1F3552391F3951B550BBB27FB
:102C3000AA2762177307840738F09F5F5F4F220F40
:102C4000331F441FAA1FA9F335D00E2E3AF0E0E837
:102C500032D091505040E695001CCAF72BD0FE2F81
:102C600029D0660F771F881FBB1F26173707480715
:102C7000AB07B0E809F0BB0B802DBF01FF279358CD
:102C80005F4F3AF09E3F510578F00C94B9140C94C4
:102C900004155F3FE4F3983ED4F3869577956795E6
:102CA000B795F7959F5FC9F7880F911D9695879502
:102CB00097F90895E1E0660F771F881FBB1F621721
:102CC00073078407BA0720F0621B730B840BBA0BDF
:102CD000EE1F88F7E09508950E94E91488F09F5749
:102CE00098F0B92F9927B751B0F0E1F0660F771F30
:102CF000881F991F1AF0BA95C9F714C0B13091F026
:102D00000E940315B1E008950C940315672F782FE6
:102D10008827B85F39F0B93FCCF3869577956795EA
:102D2000B395D9F73EF490958095709561957F4F56
:102D30008F4F9F4F08950E94281408F48FEF089535
:102D40000E942814880B990B0895EE0FFF1F059021
:102D5000F491E02D09940F931F93CF93DF9382306A
:102D6000910510F482E090E0E091E202F091E3023C
:102D700030E020E0B0E0A0E0309799F42115310573
:102D800009F44AC0281B390B24303105D8F58A8153
:102D90009B816115710589F1FB0193838283FE019B
:102DA00011C0408151810281138148175907E0F019
:102DB0004817590799F4109761F012960C931297DF
:102DC00013961C933296CF01DF91CF911F910F91F3
:102DD00008950093E2021093E302F4CF2115310528
:102DE00051F04217530738F0A901DB019A01BD01E8
:102DF000DF01F801C1CFEF01F9CF9093E302809397
:102E0000E202CDCFFE01E20FF31F81939193225096
:102E1000310939832883D7CF2091E0023091E10234
:102E2000232B41F42091090130910A013093E102F2
:102E30002093E0022091070130910801211531050E
:102E400041F42DB73EB740910B0150910C01241B6A
:102E5000350BE091E002F091E102E217F307A0F4F4
:102E60002E1B3F0B2817390778F0AC014E5F5F4FE0
:102E70002417350748F04E0F5F1F5093E10240932F
:102E8000E002819391939FCFF0E0E0E09CCFCF935D
:102E9000DF930097E9F0FC01329713821282A09130
:102EA000E202B091E302ED0130E020E01097A1F4DE
:102EB00020813181820F931F2091E0023091E10245
:102EC0002817390709F061C0F093E102E093E002AE
:102ED000DF91CF910895EA01CE17DF07E8F54A8127
:102EE0005B819E0141155105B1F7E901FB83EA833E
:102EF00049915991C40FD51FEC17FD0761F48081EA
:102F000091810296840F951FE901998388838281BC
:102F100093819B838A83F0E0E0E012968D919C91EF
:102F200013970097B9F52D913C911197CD01029619
:102F3000820F931F2091E0023091E1022817390798
:102F400039F6309751F51092E3021092E202B093F5
:102F5000E102A093E002BCCFD383C28340815181C0
:102F6000840F951FC817D90761F44E5F5F4F8881A2
:102F70009981480F591F518340838A819B81938394
:102F800082832115310509F0B0CFF093E302E0937D
:102F9000E2029ECFFD01DC01C0CF13821282D7CFA7
:102FA000B0E0A0E0E6EDF7E10C9449158C01009744
:102FB00051F4CB010E94AB168C01C801CDB7DEB72E
:102FC000E0E10C946515FC01E60FF71F9C0122500F
:102FD0003109E217F30708F49DC0D901CD91DC91C6
:102FE0001197C617D70798F0C530D10530F3CE0139
:102FF00004978617970708F3C61BD70B2297C19330
:10300000D1936D937C93CF010E944717D6CF5B017C
:10301000AC1ABD0A4C018C0E9D1EA091E202B0912B
:10302000E302512C412CF12CE12C109731F58091C9
:10303000E0029091E1028815990509F05CC04616FE
:10304000570608F058C08091070190910801009739
:1030500041F48DB79EB740910B0150910C01841B38
:10306000950BE817F90708F055C0F093E102E093DB
:10307000E002F90171836083A0CF8D919C9111973B
:1030800012966C90129713967C901397A815B90519
:1030900059F56C0142E0C40ED11CCA14DB0420F1C6
:1030A000AC014A195B09DA011296159780F0628229
:1030B000738251834083D9016D937C93E114F104B1
:1030C00071F0D7011396FC93EE93129776CF229668
:1030D0008C0F9D1FF90191838083F301EFCFF09353
:1030E000E302E093E20269CF4816590608F42C0186
:1030F0007D01D3019ACFCB010E94AB167C010097D2
:1031000049F0AE01B8010E949918C8010E94471702
:10311000870153CF10E000E050CF91110C94E313DE
:1031200080538A5028F0865C806281568650B0F7C2
:103130000895FB01DC0102C001900D924150504006
:10314000D8F70895FB01DC0101900D920020E1F712
:103150000895FB01DC014150504030F08D91019009
:10316000801919F40020B9F7881B990B0895F89479
:02317000FFCF8F
:103172003200E8030A28000000E402800000000098
:1031820000490569049604B1050705A504F9040D73
:103192000A006E616E00696E66006F7666003078B6
:0431A20000305800A1
:00000001FF
